:100000000C942A000C9434000C9434000C943400AA
:100010000C9434000C9434000C9434000C94340090
:100020000C9434000C9434000C9434000C94340080
:100030000C9434000C9434000C9434000C94340070
:100040000C9434000C9434000C9434000C94340060
:100050000C94340011241FBECFE5D8E0DEBFCDBF25
:100060000E9442000C9452000C9400008FEF8ABB57
:100070001BBA08958FEF8ABB1BBA08958BB3809586
:100080008BBB08958FEF8ABB1BBA20E931E08BB39D
:1000900080958BBB88E893E1F9013197F1F70197DF
:0800A000D9F7F5CFF894FFCF6A
:00000001FF
